:100000000C945D000C9485000C9485000C94850084
:100010000C9485000C9485000C9485000C9485004C
:100020000C9485000C9485000C9485000C9485003C
:100030000C9485000C9485000C9485000C9485002C
:100040000C94B2050C9485000C9480050C945A0510
:100050000C9485000C9485000C9485000C9485000C
:100060000C9485000C94850000000008000201003B
:100070000003040700000000000000000000000072
:10008000250028002B0000000000240027002A0083
:10009000040404040404040402020202020203032E
:1000A0000303030301020408102040800102040836
:1000B0001020010204081020FC0511241FBECFEF00
:1000C000D8E0DEBFCDBF11E0A0E0B1E0E8E2F5E1AD
:1000D00002C005900D92A238B107D9F722E0A2E83C
:1000E000B1E001C01D92A034B207E1F710E0CDE508
:1000F000D0E004C02197FE010E948C0ACC35D107C4
:10010000C9F70E9447060C94920A0C94000090E0F4
:10011000FC01EC55FF4F249180579F4FFC018491C7
:10012000882399F090E0880F991FFC01EA57FF4F50
:10013000A591B491FC01E458FF4F859194918FB73C
:10014000F894EC91E22BEC938FBF0895DC01ED91D4
:10015000FC910190F081E02D0994AF92BF92CF9273
:10016000DF92EF92FF920F931F93CF93DF936C0177
:100170007B018B01040F151FEB015E01AE18BF0858
:10018000C017D10759F06991D601ED91FC9101900A
:10019000F081E02DC6010995892B79F7C501DF9122
:1001A000CF911F910F91FF90EF90DF90CF90BF9074
:1001B000AF900895FC01538D448D252F30E0842F9E
:1001C00090E0821B930B541710F0CF96089501977F
:1001D0000895FC01918D828D981761F0A28DAE0F6C
:1001E000BF2FB11D5D968C91928D9F5F9F73928FF3
:1001F00090E008958FEF9FEF0895FC01918D828D1F
:10020000981731F0828DE80FF11D858D90E00895EB
:100210008FEF9FEF0895FC01918D228D892F90E043
:10022000805C9F4F821B91098F73992708958BE8FB
:1002300091E00E940B0121E0892B09F420E0822F3C
:10024000089580E090E0892B29F00E941701811128
:100250000C9400000895FC01A48DA80FB92FB11DC6
:10026000A35ABF4F2C91848D90E001968F739927EC
:10027000848FA689B7892C93A089B1898C918370CA
:1002800080648C93938D848D981306C00288F389C3
:10029000E02D80818F7D80830895EF92FF920F93F0
:1002A0001F93CF93DF93EC0181E0888F9B8D8C8D22
:1002B00098131AC0E889F989808185FF15C09FB716
:1002C000F894EE89FF896083E889F98980818370D9
:1002D000806480839FBF81E090E0DF91CF911F9188
:1002E0000F91FF90EF900895F62E0B8D10E00F5FA9
:1002F0001F4F0F731127E02E8C8D8E110CC00FB67F
:1003000007FCFACFE889F989808185FFF5CFCE0116
:100310000E942B01F1CFEB8DEC0FFD2FF11DE35A65
:10032000FF4FF0829FB7F8940B8FEA89FB89808199
:100330008062CFCFCF93DF93EC01888D8823B9F013
:10034000AA89BB89E889F9898C9185FD03C08081E0
:1003500086FD0DC00FB607FCF7CF8C9185FFF2CF5D
:10036000808185FFEDCFCE010E942B01E9CFDF9187
:10037000CF91089590E0FC01E859FF4F2491FC01D2
:10038000EC55FF4F3491FC01E057FF4FE491EE2311
:10039000C9F0222339F0233001F1A8F4213019F1FA
:1003A000223029F1F0E0EE0FFF1FE458FF4FA59136
:1003B000B4918FB7F894EC91611126C030953E232B
:1003C0003C938FBF08952730A9F02830C9F024301E
:1003D00049F7809180008F7D03C0809180008F77E6
:1003E00080938000DFCF84B58F7784BDDBCF84B569
:1003F0008F7DFBCF8091B0008F778093B000D2CFFC
:100400008091B0008F7DF9CF3E2BDACF3FB7F894C3
:100410008091870190918801A0918901B0918A0112
:1004200026B5A89B05C02F3F19F00196A11DB11D4F
:100430003FBFBA2FA92F982F8827BC01CD01620F8B
:10044000711D811D911D43E0660F771F881F991F45
:100450004A95D1F708958F929F92AF92BF92CF9213
:10046000DF92EF92FF924B015C010E9406026B014A
:100470007C010E9406026C197D098E099F09683E65
:10048000734081059105A8F321E0821A9108A10823
:10049000B10888EEC80E83E0D81EE11CF11C81145F
:1004A0009104A104B10429F7FF90EF90DF90CF9061
:1004B000BF90AF909F908F900895089590E080E056
:1004C00008950F931F93E0E0F1E040E050E0BA019F
:1004D000806480937C0090917A00906490937A007D
:1004E00090917A0096FDFCCF909178000091790070
:1004F000102F092F012E000C220B330B400F511F20
:10050000621F731F319729F7DB01CA0126E0B695F8
:10051000A795979587952A95D1F71F910F910895E3
:10052000CF93DF93EC0160E08E810E94BA0161E01D
:100530008E810E94BA0160E08E810E94BA0184EC33
:1005400090E00197F1F7DF91CF910895CF92DF927C
:10055000EF92FF920F931F93CF93DF936C017C0177
:1005600087E0E80EF11CD0E0C0E0062F10E0B801F3
:100570000C2E02C0759567950A94E2F76170F70139
:1005800081917F010E94BA012196C430D10579F78B
:10059000C601DF91CF911F910F91FF90EF90DF90F7
:1005A000CF900C949002CF92DF92EF92FF920F9334
:1005B0001F93CF93DF93EC01F62E642F8C810E9462
:1005C000BA018D818F3F19F060E00E94BA010F2DB2
:1005D00010E08F8584FF25C06E0187E0C80ED11C16
:1005E000F12CE12CB8010E2C02C0759567950A9488
:1005F000E2F76170F60181916F010E94BA01FFEF8D
:10060000EF1AFF0A88E0E816F10461F7CE01DF91E6
:10061000CF911F910F91FF90EF90DF90CF900C94AE
:100620009002B80184E0759567958A95E1F7CE014F
:100630000E94A6026F2DCE01DF91CF911F910F91E5
:10064000FF90EF90DF90CF900C94A60240E0682FCF
:1006500088E292E00C94D302CF93DF93613029F0CB
:100660009091370298609093370260933B0210920A
:100670003C0290E490933D0280933E02805C809324
:100680003F0280912C020E94870080912D028F3FB3
:1006900011F00E94870080912E020E948700C8E21C
:1006A000D2E09E01285232408091370284FD0AC078
:1006B00084E090E02196281739073CF48E810E944F
:1006C0008700EFCF88E090E0F5CF8CE996E80197BE
:1006D000F1F760E080912C020E94BA0160E0809105
:1006E0002E020E94BA0180912D028F3F19F060E026
:1006F0000E94BA018091370284FD39C063E088E22C
:1007000092E00E94A602C4E2D3E2CE010197F1F783
:1007100063E088E292E00E94A6022197F1F763E08D
:1007200088E292E00E94A60288E291E00197F1F748
:1007300062E088E292E00E94A60280913702806225
:100740000E94260384E0809338028CE00E942603F6
:1007500081E00E9426038CE99FE00197F1F782E097
:100760008093390286E0DF91CF910C94260380625A
:100770000E94260384E293E20197F1F78091370209
:1007800080620E94260388E291E00197F1F7809150
:10079000370280620E942603D0CF90913B028917D6
:1007A00010F08FEF890FE82FF0E0E85DFD4F8489AE
:1007B00080680C94260341E00E94D30281E090E01F
:1007C0000895FB0101900020E9F73197AF01461B26
:1007D000570BDC01ED91FC910280F381E02D09942F
:1007E0008F929F92AF92BF92EF92FF920F931F93BF
:1007F000CF93DF93CDB7DEB7A1970FB6F894DEBFE6
:100800000FBECDBF7C01FA01CB0119A2223008F442
:100810002AE08E010F5D1F4F822E912CB12CA12C4E
:10082000BF01A50194010E946A0AF901CA016A3058
:100830000CF5605DD8016E938D01232B242B252BA5
:1008400079F790E080E0109721F0BD01C7010E9488
:10085000E103A1960FB6F894DEBF0FBECDBFDF91C6
:10086000CF911F910F91FF90EF90BF90AF909F900D
:100870008F900895695CDECFCF92DF92EF92FF9266
:100880000F931F93CF93DF936B01770FEE08FF0851
:10089000F7FE1BC0EC016DE20E94A6008C0144270C
:1008A0005527BA014C195D096E097F092AE0CE016E
:1008B0000E94F003800F911FDF91CF911F910F9144
:1008C000FF90EF90DF90CF9008952AE0B701A60146
:1008D000DF91CF911F910F91FF90EF90DF90CF901C
:1008E0000C94F0032F923F924F925F926F927F92FF
:1008F0008F929F92AF92BF92CF92DF92EF92FF9230
:100900001F93CF93DF93EC016A017B01722EAB0141
:100910009601CB01B6010E94650A6EE171E081117A
:1009200026C046015701E894B7F82FEF3FEF4FE795
:100930005FE7C501B4010E94650A81110CC02FEF69
:100940003FEF4FE75FE7C501B4010E949B0862E2F9
:1009500071E0181664F02FEF3FEF4FE75FE4C70137
:10096000B6010E94F3091816B4F466E271E0CE01F4
:10097000DF91CF911F91FF90EF90DF90CF90BF90CC
:10098000AF909F908F907F906F905F904F903F902F
:100990002F900C94E1032FEF3FEF4FE75FECC7017F
:1009A000B6010E949B0887FDE0CF20E030E0A9015E
:1009B000C701B6010E949B08312C212C87FF09C07A
:1009C0006DE2CE010E94A6001C01F7FAF094F7F840
:1009D000F09410E060E070E080E09FE3711641F079
:1009E00020E030E040E251E40E94A0081F5FF6CF13
:1009F000A70196010E942F082B013C010E941209B9
:100A00004B015C012AE0BC01A401CE010E94F0036D
:100A10007C01E20CF31C1123C1F1C501B4010E9459
:100A200041099B01AC01C301B2010E942E084B0198
:100A30005C016EE2CE010E94A600E80EF91E115084
:100A400020F120E030E040E251E4C501B4010E9411
:100A5000F8092B013C010E9412094B01B12CA12C79
:100A60002AE0B501A401CE010E94F003E80EF91EB0
:100A7000C501B4010E9441099B01AC01C301B2014F
:100A80000E942E084B015C01DACFC701DF91CF91A4
:100A90001F91FF90EF90DF90CF90BF90AF909F900D
:100AA0008F907F906F905F904F903F902F90089520
:100AB0000C94E1031F920F920FB60F9211242F9303
:100AC0003F934F935F936F937F938F939F93AF93D6
:100AD000BF93EF93FF938BE891E00E942B01FF916E
:100AE000EF91BF91AF919F918F917F916F915F91A6
:100AF0004F913F912F910F900FBE0F901F9018951F
:100B00001F920F920FB60F9211242F938F939F93E2
:100B1000EF93FF93E0919B01F0919C018081E09124
:100B2000A101F091A20182FD1BC090818091A401DE
:100B30008F5F8F732091A501821741F0E091A4018E
:100B4000F0E0E557FE4F958F8093A401FF91EF9160
:100B50009F918F912F910F900FBE0F901F9018951E
:100B60008081F4CF1F920F920FB60F9211242F9312
:100B70003F938F939F93AF93BF9380918301909105
:100B80008401A0918501B09186013091820126E017
:100B9000230F2D3758F50296A11DB11D2093820118
:100BA0008093830190938401A0938501B093860183
:100BB0008091870190918801A0918901B0918A016B
:100BC0000196A11DB11D8093870190938801A09388
:100BD0008901B0938A01BF91AF919F918F913F910D
:100BE0002F910F900FBE0F901F90189529E8230F9B
:100BF0000396A11DB11DD2CFEBE8F1E01382128262
:100C000088EE93E0A0E0B0E084839583A683B78369
:100C100084E091E09183808385EC90E095878487E0
:100C200084EC90E09787868780EC90E0918B808BB6
:100C300081EC90E0938B828B82EC90E0958B848B9F
:100C400086EC90E0978B868B118E128E138E148E0D
:100C5000E8E2F2E01382128286E191E091838083E0
:100C60008CE084838FEF85838BE0868385E08783A8
:100C700084E0808783E0818782E082871386148600
:100C800015861686178661E080E10C942C03CF93BD
:100C9000DF9300D000D000D0CDB7DEB7789484B514
:100CA000826084BD84B5816084BD85B5826085BD68
:100CB00085B5816085BD80916E00816080936E00F6
:100CC00010928100809181008260809381008091E8
:100CD0008100816080938100809180008160809399
:100CE00080008091B10084608093B1008091B00059
:100CF00081608093B00080917A00846080937A0054
:100D000080917A00826080937A0080917A008E7F51
:100D100080937A0080917A00806880937A001092A4
:100D2000C100E0919B01F0919C0182E08083E09101
:100D30009701F09198011082E0919901F0919A0148
:100D400080E180831092A301E0919F01F091A001C6
:100D500086E08083E0919D01F0919E018081806119
:100D60008083E0919D01F0919E0180818860808365
:100D7000E0919D01F0919E01808180688083E091E7
:100D80009D01F0919E0180818F7D808380917A000A
:100D9000846080937A0080917A008D7F80937A00BE
:100DA00080917A008E7F80937A0064E084E10E94D3
:100DB0002C0380E00E94CD036AE271E088E292E0B9
:100DC0000E94580581E00E94CD036EE371E088E245
:100DD00092E00E94580582E00E94CD036BE471E02E
:100DE00088E292E00E94580568EE73E080E090E0AF
:100DF0000E942B0281E00E9426038CE99FE001976C
:100E0000F1F780E00E9461029E838D8381E00E9461
:100E100061028C0182E00E9461021C012D813E81F1
:100E2000B901330F880B990B0E9443092DE038E676
:100E300043ED5AE30E94F8096B017C01B801012ED1
:100E4000000C880B990B0E9443092AE03EE84EE112
:100E50005BE30E94F809A70196010E942E084B014E
:100E60005C01B101032C000C880B990B0E94430913
:100E70002DE038E643E55BE30E94F809A501940103
:100E80000E942E08A70196010E942E082B013C010A
:100E9000A5019401C701B6010E942F08A301920188
:100EA0000E942F0869837A838B839C8380E00E9451
:100EB000CD0365E571E088E292E00E94580522E0EA
:100EC000B701A60188E292E00E9472046EE571E02B
:100ED00088E292E00E9458056D817E8188E292E06E
:100EE0000E943C046CE571E088E292E00E945805A3
:100EF00081E00E94CD0362E671E088E292E00E9408
:100F0000580522E0B501A40188E292E00E94720433
:100F10006EE571E088E292E00E945805B80188E22F
:100F200092E00E943C046CE571E088E292E00E944D
:100F3000580582E00E94CD036BE671E088E292E002
:100F40000E94580522E0B301A20188E292E00E94CB
:100F500072046EE571E088E292E00E945805B101EA
:100F600088E292E00E943C046CE571E088E292E045
:100F70000E94580583E00E94CD0364E771E088E297
:100F800092E00E94580523E049815A816B817C815F
:100F900088E292E00E9472046EE571E088E292E0DD
:100FA0000E9458056D817E818BE891E00E943C048F
:100FB0006CE771E08BE891E00E945805B8018BE87E
:100FC00091E00E943C046CE771E08BE891E00E94A4
:100FD0005805B1018BE891E00E943C046CE771E098
:100FE0008BE891E00E94580523E0B701A6018BE849
:100FF00091E00E9472046CE771E08BE891E00E943E
:10100000580523E0B501A4018BE891E00E94720429
:101010006CE771E08BE891E00E94580523E0B30192
:10102000A2018BE891E00E9472046EE771E08BE808
:1010300091E00E94E1036AE070E080E090E00E94AD
:101040002B0280E090E0892B09F4DBCE0E9417018F
:10105000882309F4D6CE0E940000D3CE5058BB2777
:10106000AA270E9446080C94B9090E94AB0938F0DF
:101070000E94B20920F039F49F3F19F426F40C9431
:10108000A8090EF4E095E7FB0C94A209E92F0E9451
:10109000CA0958F3BA17620773078407950720F047
:1010A00079F4A6F50C94EC090EF4E0950B2EBA2F0A
:1010B000A02D0B01B90190010C01CA01A00111245E
:1010C000FF27591B99F0593F50F4503E68F11A160A
:1010D000F040A22F232F342F4427585FF3CF46959B
:1010E00037952795A795F0405395C9F77EF41F16BD
:1010F000BA0B620B730B840BBAF09150A1F0FF0F87
:10110000BB1F661F771F881FC2F70EC0BA0F621F72
:10111000731F841F48F4879577956795B795F79562
:101120009E3F08F0B0CF9395880F08F09927EE0FF7
:101130009795879508950E947E0908F481E00895A7
:101140000E94B4080C94B9090E94B20958F00E9498
:10115000AB0940F029F45F3F29F00C94A20951112A
:101160000C94ED090C94A8090E94CA0968F399230C
:10117000B1F3552391F3951B550BBB27AA27621793
:101180007307840738F09F5F5F4F220F331F441FA0
:10119000AA1FA9F335D00E2E3AF0E0E832D09150D4
:1011A0005040E695001CCAF72BD0FE2F29D0660FC1
:1011B000771F881FBB1F261737074807AB07B0E804
:1011C00009F0BB0B802DBF01FF2793585F4F3AF00A
:1011D0009E3F510578F00C94A2090C94ED095F3FF5
:1011E000E4F3983ED4F3869577956795B795F79590
:1011F0009F5FC9F7880F911D9695879597F9089578
:10120000E1E0660F771F881FBB1F62177307840713
:10121000BA0720F0621B730B840BBA0BEE1F88F722
:10122000E09508950E94D20988F09F5798F0B92F51
:101230009927B751B0F0E1F0660F771F881F991F0B
:101240001AF0BA95C9F714C0B13091F00E94EC09B8
:10125000B1E008950C94EC09672F782F8827B85FC8
:1012600039F0B93FCCF3869577956795B395D9F763
:101270003EF490958095709561957F4F8F4F9F4F6D
:101280000895E89409C097FB3EF490958095709579
:1012900061957F4F8F4F9F4F9923A9F0F92F96E9C2
:1012A000BB279395F695879577956795B795F11137
:1012B000F8CFFAF4BB0F11F460FF1BC06F5F7F4FD4
:1012C0008F4F9F4F16C0882311F096E911C07723E6
:1012D00021F09EE8872F762F05C0662371F096E8EF
:1012E000862F70E060E02AF09A95660F771F881FBE
:1012F000DAF7880F9695879597F90895990F000862
:10130000550FAA0BE0E8FEEF16161706E807F907D7
:10131000C0F012161306E407F50798F0621B730B72
:10132000840B950B39F40A2661F0232B242B252BF3
:1013300021F408950A2609F4A140A6958FEF811D96
:10134000811D089597F99F6780E870E060E0089537
:101350009FEF80EC089500240A94161617061806CD
:101360000906089500240A941216130614060506A9
:101370000895092E0394000C11F4882352F0BB0F3A
:1013800040F4BF2B11F460FF04C06F5F7F4F8F4F9D
:101390009F4F089557FD9058440F551F59F05F3FD8
:1013A00071F04795880F97FB991F61F09F3F79F087
:1013B00087950895121613061406551FF2CF469509
:1013C000F1DF08C0161617061806991FF1CF86958B
:1013D0007105610508940895E894BB27662777276F
:1013E000CB0197F908950E947E0908F48FEF0895C4
:1013F0000E940B0A0C94B9090E94AB0938F00E94B4
:10140000B20920F0952311F00C94A2090C94A809BC
:1014100011240C94ED090E94CA0970F3959FC1F341
:10142000950F50E0551F629FF001729FBB27F00D92
:10143000B11D639FAA27F00DB11DAA1F649F6627E7
:10144000B00DA11D661F829F2227B00DA11D621F36
:10145000739FB00DA11D621F839FA00D611D221FF0
:10146000749F3327A00D611D231F849F600D211DD4
:10147000822F762F6A2F11249F5750409AF0F1F057
:1014800088234AF0EE0FFF1FBB1F661F771F881FC0
:1014900091505040A9F79E3F510580F00C94A2094D
:1014A0000C94ED095F3FE4F3983ED4F3869577956D
:1014B0006795B795F795E7959F5FC1F7FE2B880F66
:1014C000911D9695879597F908950E947E09880B3E
:1014D000990B0895A1E21A2EAA1BBB1BFD010DC09A
:1014E000AA1FBB1FEE1FFF1FA217B307E407F507D4
:1014F00020F0A21BB30BE40BF50B661F771F881FB0
:10150000991F1A9469F760957095809590959B0145
:10151000AC01BD01CF010895EE0FFF1F0590F491BE
:08152000E02D0994F894FFCFBF
:10152800000000004D01AD00DA009A010B01E9004E
:10153800FD0000000000DB03AD005E025D026E618D
:101548006E00696E66006F76660048656C6C6F2C7D
:1015580020546563686E306D616E316163004C4381
:10156800442042616C616E73697200332E335620D9
:10157800343039320043656C2031203D200020563C
:10158800200043656C2032203D200043656C2033E9
:10159800203D200042415454203D20002C000D0ADB
:0215A800000041
:00000001FF
